{
  "_format": "hh-sol-artifact-1",
  "contractName": "ProductPurchase",
  "sourceName": "contracts/ProductPurchase.sol",
  "abi": [
    {
      "inputs": [],
      "stateMutability": "nonpayable",
      "type": "constructor"
    },
    {
      "anonymous": false,
      "inputs": [
        {
          "indexed": false,
          "internalType": "string",
          "name": "productId",
          "type": "string"
        },
        {
          "indexed": false,
          "internalType": "uint256",
          "name": "price",
          "type": "uint256"
        }
      ],
      "name": "ProductPriceSet",
      "type": "event"
    },
    {
      "anonymous": false,
      "inputs": [
        {
          "indexed": true,
          "internalType": "address",
          "name": "buyer",
          "type": "address"
        },
        {
          "indexed": false,
          "internalType": "string",
          "name": "productId",
          "type": "string"
        },
        {
          "indexed": false,
          "internalType": "uint256",
          "name": "amount",
          "type": "uint256"
        }
      ],
      "name": "ProductPurchased",
      "type": "event"
    },
    {
      "anonymous": false,
      "inputs": [
        {
          "indexed": true,
          "internalType": "address",
          "name": "buyer",
          "type": "address"
        },
        {
          "indexed": false,
          "internalType": "string",
          "name": "productId",
          "type": "string"
        },
        {
          "indexed": false,
          "internalType": "uint256",
          "name": "amount",
          "type": "uint256"
        }
      ],
      "name": "ProductRefunded",
      "type": "event"
    },
    {
      "anonymous": false,
      "inputs": [
        {
          "indexed": true,
          "internalType": "address",
          "name": "buyer",
          "type": "address"
        },
        {
          "indexed": false,
          "internalType": "string",
          "name": "productId",
          "type": "string"
        }
      ],
      "name": "PurchaseCancelled",
      "type": "event"
    },
    {
      "anonymous": false,
      "inputs": [
        {
          "indexed": false,
          "internalType": "uint256",
          "name": "amount",
          "type": "uint256"
        }
      ],
      "name": "Withdrawal",
      "type": "event"
    },
    {
      "inputs": [
        {
          "internalType": "string",
          "name": "productId",
          "type": "string"
        }
      ],
      "name": "cancelPurchase",
      "outputs": [],
      "stateMutability": "nonpayable",
      "type": "function"
    },
    {
      "inputs": [
        {
          "internalType": "address",
          "name": "buyer",
          "type": "address"
        },
        {
          "internalType": "string",
          "name": "productId",
          "type": "string"
        }
      ],
      "name": "getPurchaseTimestamp",
      "outputs": [
        {
          "internalType": "uint256",
          "name": "",
          "type": "uint256"
        }
      ],
      "stateMutability": "view",
      "type": "function"
    },
    {
      "inputs": [
        {
          "internalType": "string",
          "name": "productId",
          "type": "string"
        }
      ],
      "name": "hasPurchasedProduct",
      "outputs": [
        {
          "internalType": "bool",
          "name": "",
          "type": "bool"
        }
      ],
      "stateMutability": "view",
      "type": "function"
    },
    {
      "inputs": [],
      "name": "owner",
      "outputs": [
        {
          "internalType": "address",
          "name": "",
          "type": "address"
        }
      ],
      "stateMutability": "view",
      "type": "function"
    },
    {
      "inputs": [
        {
          "internalType": "string",
          "name": "",
          "type": "string"
        }
      ],
      "name": "productPrices",
      "outputs": [
        {
          "internalType": "uint256",
          "name": "",
          "type": "uint256"
        }
      ],
      "stateMutability": "view",
      "type": "function"
    },
    {
      "inputs": [
        {
          "internalType": "string",
          "name": "productId",
          "type": "string"
        }
      ],
      "name": "purchaseProduct",
      "outputs": [],
      "stateMutability": "payable",
      "type": "function"
    },
    {
      "inputs": [
        {
          "internalType": "address",
          "name": "",
          "type": "address"
        },
        {
          "internalType": "string",
          "name": "",
          "type": "string"
        }
      ],
      "name": "purchaseTimestamps",
      "outputs": [
        {
          "internalType": "uint256",
          "name": "",
          "type": "uint256"
        }
      ],
      "stateMutability": "view",
      "type": "function"
    },
    {
      "inputs": [
        {
          "internalType": "string",
          "name": "",
          "type": "string"
        }
      ],
      "name": "purchasedProducts",
      "outputs": [
        {
          "internalType": "bool",
          "name": "",
          "type": "bool"
        }
      ],
      "stateMutability": "view",
      "type": "function"
    },
    {
      "inputs": [
        {
          "internalType": "address",
          "name": "buyer",
          "type": "address"
        },
        {
          "internalType": "string",
          "name": "productId",
          "type": "string"
        }
      ],
      "name": "refundPurchase",
      "outputs": [],
      "stateMutability": "nonpayable",
      "type": "function"
    },
    {
      "inputs": [
        {
          "internalType": "string",
          "name": "productId",
          "type": "string"
        },
        {
          "internalType": "uint256",
          "name": "price",
          "type": "uint256"
        }
      ],
      "name": "setProductPrice",
      "outputs": [],
      "stateMutability": "nonpayable",
      "type": "function"
    },
    {
      "inputs": [
        {
          "internalType": "address",
          "name": "",
          "type": "address"
        },
        {
          "internalType": "string",
          "name": "",
          "type": "string"
        }
      ],
      "name": "userPurchases",
      "outputs": [
        {
          "internalType": "bool",
          "name": "",
          "type": "bool"
        }
      ],
      "stateMutability": "view",
      "type": "function"
    },
    {
      "inputs": [],
      "name": "withdraw",
      "outputs": [],
      "stateMutability": "nonpayable",
      "type": "function"
    }
  ],
  "bytecode": "0x608060405234801561001057600080fd5b50336000806101000a81548173ffffffffffffffffffffffffffffffffffffffff021916908373ffffffffffffffffffffffffffffffffffffffff160217905550611929806100606000396000f3fe6080604052600436106100a75760003560e01c8063470d3b6511610064578063470d3b65146101ab5780638137a465146101e85780638da5cb5b146102255780639799e78314610250578063dc4b6e7b1461028d578063f3b2b53f146102b6576100a7565b8063086aa172146100ac57806319f92926146100e9578063216676ed14610105578063240567d31461014257806334eb3ee21461016b5780633ccfd60b14610194575b600080fd5b3480156100b857600080fd5b506100d360048036038101906100ce91906111e4565b6102f3565b6040516100e09190611246565b60405180910390f35b61010360048036038101906100fe91906111e4565b610321565b005b34801561011157600080fd5b5061012c600480360381019061012791906111e4565b6106a0565b604051610139919061127c565b60405180910390f35b34801561014e57600080fd5b50610169600480360381019061016491906112f5565b6106d6565b005b34801561017757600080fd5b50610192600480360381019061018d91906111e4565b610a80565b005b3480156101a057600080fd5b506101a9610c85565b005b3480156101b757600080fd5b506101d260048036038101906101cd91906112f5565b610e20565b6040516101df9190611246565b60405180910390f35b3480156101f457600080fd5b5061020f600480360381019061020a91906112f5565b610e5b565b60405161021c919061127c565b60405180910390f35b34801561023157600080fd5b5061023a610ea0565b6040516102479190611360565b60405180910390f35b34801561025c57600080fd5b50610277600480360381019061027291906111e4565b610ec4565b604051610284919061127c565b60405180910390f35b34801561029957600080fd5b506102b460048036038101906102af91906113a7565b610f36565b005b3480156102c257600080fd5b506102dd60048036038101906102d891906112f5565b611024565b6040516102ea9190611246565b60405180910390f35b6001818051602081018201805184825260208301602085012081835280955050505050506000915090505481565b60006001826040516103339190611474565b908152602001604051809103902054905060008111610387576040517f08c379a000000000000000000000000000000000000000000000000000000000815260040161037e906114e8565b60405180910390fd5b803410156103ca576040517f08c379a00000000000000000000000000000000000000000000000000000000081526004016103c190611554565b60405180910390fd5b600360003373ffffffffffffffffffffffffffffffffffffffff1673ffffffffffffffffffffffffffffffffffffffff168152602001908152602001600020826040516104179190611474565b908152602001604051809103902060009054906101000a900460ff1615610473576040517f08c379a000000000000000000000000000000000000000000000000000000000815260040161046a906115c0565b60405180910390fd5b6001600360003373ffffffffffffffffffffffffffffffffffffffff1673ffffffffffffffffffffffffffffffffffffffff168152602001908152602001600020836040516104c29190611474565b908152602001604051809103902060006101000a81548160ff02191690831515021790555060016002836040516104f99190611474565b908152602001604051809103902060006101000a81548160ff02191690831515021790555042600460003373ffffffffffffffffffffffffffffffffffffffff1673ffffffffffffffffffffffffffffffffffffffff1681526020019081526020016000208360405161056c9190611474565b90815260200160405180910390208190555060008060009054906101000a900473ffffffffffffffffffffffffffffffffffffffff1673ffffffffffffffffffffffffffffffffffffffff16346040516105c590611611565b60006040518083038185875af1925050503d8060008114610602576040519150601f19603f3d011682016040523d82523d6000602084013e610607565b606091505b505090508061064b576040517f08c379a000000000000000000000000000000000000000000000000000000000815260040161064290611672565b60405180910390fd5b3373ffffffffffffffffffffffffffffffffffffffff167fa0e58a48882e3c9076cbae38a07550b6746689c9602537306dc239266a46375784346040516106939291906116cb565b60405180910390a2505050565b6002818051602081018201805184825260208301602085012081835280955050505050506000915054906101000a900460ff1681565b60008054906101000a900473ffffffffffffffffffffffffffffffffffffffff1673ffffffffffffffffffffffffffffffffffffffff163373ffffffffffffffffffffffffffffffffffffffff1614610764576040517f08c379a000000000000000000000000000000000000000000000000000000000815260040161075b9061176d565b60405180910390fd5b600360008373ffffffffffffffffffffffffffffffffffffffff1673ffffffffffffffffffffffffffffffffffffffff168152602001908152602001600020816040516107b19190611474565b908152602001604051809103902060009054906101000a900460ff1661080c576040517f08c379a0000000000000000000000000000000000000000000000000000000008152600401610803906117d9565b60405180910390fd5b600060018260405161081e9190611474565b908152602001604051809103902054905060008111610872576040517f08c379a0000000000000000000000000000000000000000000000000000000008152600401610869906114e8565b60405180910390fd5b6000600360008573ffffffffffffffffffffffffffffffffffffffff1673ffffffffffffffffffffffffffffffffffffffff168152602001908152602001600020836040516108c19190611474565b908152602001604051809103902060006101000a81548160ff02191690831515021790555060006002836040516108f89190611474565b908152602001604051809103902060006101000a81548160ff0219169083151502179055506000600460008573ffffffffffffffffffffffffffffffffffffffff1673ffffffffffffffffffffffffffffffffffffffff1681526020019081526020016000208360405161096c9190611474565b90815260200160405180910390208190555060008373ffffffffffffffffffffffffffffffffffffffff16826040516109a490611611565b60006040518083038185875af1925050503d80600081146109e1576040519150601f19603f3d011682016040523d82523d6000602084013e6109e6565b606091505b5050905080610a2a576040517f08c379a0000000000000000000000000000000000000000000000000000000008152600401610a2190611845565b60405180910390fd5b8373ffffffffffffffffffffffffffffffffffffffff167fa21acdd4900cc21d82ae526ccf13048d7723bfc53099add847be2744124a2db98484604051610a729291906116cb565b60405180910390a250505050565b600360003373ffffffffffffffffffffffffffffffffffffffff1673ffffffffffffffffffffffffffffffffffffffff16815260200190815260200160002081604051610acd9190611474565b908152602001604051809103902060009054906101000a900460ff16610b28576040517f08c379a0000000000000000000000000000000000000000000000000000000008152600401610b1f906117d9565b60405180910390fd5b6000600360003373ffffffffffffffffffffffffffffffffffffffff1673ffffffffffffffffffffffffffffffffffffffff16815260200190815260200160002082604051610b779190611474565b908152602001604051809103902060006101000a81548160ff0219169083151502179055506000600282604051610bae9190611474565b908152602001604051809103902060006101000a81548160ff0219169083151502179055506000600460003373ffffffffffffffffffffffffffffffffffffffff1673ffffffffffffffffffffffffffffffffffffffff16815260200190815260200160002082604051610c229190611474565b9081526020016040518091039020819055503373ffffffffffffffffffffffffffffffffffffffff167fe9ff9b62666e080b6bbaf8fd3dc695ee3d54a650c5471513524eaa18bd2cf12d82604051610c7a9190611865565b60405180910390a250565b60008054906101000a900473ffffffffffffffffffffffffffffffffffffffff1673ffffffffffffffffffffffffffffffffffffffff163373ffffffffffffffffffffffffffffffffffffffff1614610d13576040517f08c379a0000000000000000000000000000000000000000000000000000000008152600401610d0a9061176d565b60405180910390fd5b600047905060008060009054906101000a900473ffffffffffffffffffffffffffffffffffffffff1673ffffffffffffffffffffffffffffffffffffffff1682604051610d5f90611611565b60006040518083038185875af1925050503d8060008114610d9c576040519150601f19603f3d011682016040523d82523d6000602084013e610da1565b606091505b5050905080610de5576040517f08c379a0000000000000000000000000000000000000000000000000000000008152600401610ddc906118d3565b60405180910390fd5b7f4e70a604b23a8edee2b1d0a656e9b9c00b73ad8bb1afc2c59381ee9f69197de782604051610e149190611246565b60405180910390a15050565b600460205281600052604060002081805160208101820180518482526020830160208501208183528095505050505050600091509150505481565b6003602052816000526040600020818051602081018201805184825260208301602085012081835280955050505050506000915091509054906101000a900460ff1681565b60008054906101000a900473ffffffffffffffffffffffffffffffffffffffff1681565b6000600360003373ffffffffffffffffffffffffffffffffffffffff1673ffffffffffffffffffffffffffffffffffffffff16815260200190815260200160002082604051610f139190611474565b908152602001604051809103902060009054906101000a900460ff169050919050565b60008054906101000a900473ffffffffffffffffffffffffffffffffffffffff1673ffffffffffffffffffffffffffffffffffffffff163373ffffffffffffffffffffffffffffffffffffffff1614610fc4576040517f08c379a0000000000000000000000000000000000000000000000000000000008152600401610fbb9061176d565b60405180910390fd5b80600183604051610fd59190611474565b9081526020016040518091039020819055507fdbffae6a3c7fce3286260a231daa1710879883a0144f7139776230b2cd42307b82826040516110189291906116cb565b60405180910390a15050565b6000600460008473ffffffffffffffffffffffffffffffffffffffff1673ffffffffffffffffffffffffffffffffffffffff168152602001908152602001600020826040516110739190611474565b908152602001604051809103902054905092915050565b6000604051905090565b600080fd5b600080fd5b600080fd5b600080fd5b6000601f19601f8301169050919050565b7f4e487b7100000000000000000000000000000000000000000000000000000000600052604160045260246000fd5b6110f1826110a8565b810181811067ffffffffffffffff821117156111105761110f6110b9565b5b80604052505050565b600061112361108a565b905061112f82826110e8565b919050565b600067ffffffffffffffff82111561114f5761114e6110b9565b5b611158826110a8565b9050602081019050919050565b82818337600083830152505050565b600061118761118284611134565b611119565b9050828152602081018484840111156111a3576111a26110a3565b5b6111ae848285611165565b509392505050565b600082601f8301126111cb576111ca61109e565b5b81356111db848260208601611174565b91505092915050565b6000602082840312156111fa576111f9611094565b5b600082013567ffffffffffffffff81111561121857611217611099565b5b611224848285016111b6565b91505092915050565b6000819050919050565b6112408161122d565b82525050565b600060208201905061125b6000830184611237565b92915050565b60008115159050919050565b61127681611261565b82525050565b6000602082019050611291600083018461126d565b92915050565b600073ffffffffffffffffffffffffffffffffffffffff82169050919050565b60006112c282611297565b9050919050565b6112d2816112b7565b81146112dd57600080fd5b50565b6000813590506112ef816112c9565b92915050565b6000806040838503121561130c5761130b611094565b5b600061131a858286016112e0565b925050602083013567ffffffffffffffff81111561133b5761133a611099565b5b611347858286016111b6565b9150509250929050565b61135a816112b7565b82525050565b60006020820190506113756000830184611351565b92915050565b6113848161122d565b811461138f57600080fd5b50565b6000813590506113a18161137b565b92915050565b600080604083850312156113be576113bd611094565b5b600083013567ffffffffffffffff8111156113dc576113db611099565b5b6113e8858286016111b6565b92505060206113f985828601611392565b9150509250929050565b600081519050919050565b600081905092915050565b60005b8381101561143757808201518184015260208101905061141c565b60008484015250505050565b600061144e82611403565b611458818561140e565b9350611468818560208601611419565b80840191505092915050565b60006114808284611443565b915081905092915050565b600082825260208201905092915050565b7f50726f64756374207072696365206e6f74207365740000000000000000000000600082015250565b60006114d260158361148b565b91506114dd8261149c565b602082019050919050565b60006020820190508181036000830152611501816114c5565b9050919050565b7f496e73756666696369656e74207061796d656e74000000000000000000000000600082015250565b600061153e60148361148b565b915061154982611508565b602082019050919050565b6000602082019050818103600083015261156d81611531565b9050919050565b7f50726f6475637420616c72656164792070757263686173656400000000000000600082015250565b60006115aa60198361148b565b91506115b582611574565b602082019050919050565b600060208201905081810360008301526115d98161159d565b9050919050565b600081905092915050565b50565b60006115fb6000836115e0565b9150611606826115eb565b600082019050919050565b600061161c826115ee565b9150819050919050565b7f5472616e73666572206661696c65640000000000000000000000000000000000600082015250565b600061165c600f8361148b565b915061166782611626565b602082019050919050565b6000602082019050818103600083015261168b8161164f565b9050919050565b600061169d82611403565b6116a7818561148b565b93506116b7818560208601611419565b6116c0816110a8565b840191505092915050565b600060408201905081810360008301526116e58185611692565b90506116f46020830184611237565b9392505050565b7f4f6e6c79206f776e65722063616e2063616c6c20746869732066756e6374696f60008201527f6e00000000000000000000000000000000000000000000000000000000000000602082015250565b600061175760218361148b565b9150611762826116fb565b604082019050919050565b600060208201905081810360008301526117868161174a565b9050919050565b7f5075726368617365206e6f7420666f756e640000000000000000000000000000600082015250565b60006117c360128361148b565b91506117ce8261178d565b602082019050919050565b600060208201905081810360008301526117f2816117b6565b9050919050565b7f526566756e64207472616e73666572206661696c656400000000000000000000600082015250565b600061182f60168361148b565b915061183a826117f9565b602082019050919050565b6000602082019050818103600083015261185e81611822565b9050919050565b6000602082019050818103600083015261187f8184611692565b905092915050565b7f5769746864726177616c206661696c6564000000000000000000000000000000600082015250565b60006118bd60118361148b565b91506118c882611887565b602082019050919050565b600060208201905081810360008301526118ec816118b0565b905091905056fea264697066735822122053369801eed9207c46b5dec6751a43b52ac1e5391205fea2b85a10efb3ed67d664736f6c63430008140033",
  "linkReferences": {},
  "deployedLinkReferences": {}
}